{
  "result": {
    "hex": "01000000022b3f9526e4cc14f872d414a5daa46c3b725c5188c02efb093e4589c7be34dbff000000006b483045022100e4b84f3c276a12a164eb78e6e9763dd4d7e3f67509adc30dae8820760f5aa57902204c1fd8aaac2b075e3ea6745fbc7ae9244c2c25a7435e962fda0fc4e1f9490f5501210377fd10f25e0e0f178f795931bf6cbc8fd4ff0009909ccf742c76243997ed66aeffffffffb1c6f068169bb32d341974d76f8d31439b451b5ff92390eaa7bb6367d5165b37030000006b48304502210083d613c7d63b4e1c26fb895cdc68ffc34fe46211ccefd2e063df38317d56179b02202834dcbe14e6a2ea93c66a9cc7304b85fcec0f6c9de093a9f75308728dbc307601210336dea4b1ce877a7ed78825e00c5cf6b60e945540a105600499ad8d4442ad4070ffffffff04e0c32f36000000001976a914748dba3debaba7ebdaad3b76133c73627d70cd1888ac64090c83010000001976a91486f9b287a1416e098cfab36a78d2dfe874fddee688ac2bcb0f00000000001976a9140c628e8ea55e726520ccc5079063ca7d21b6960d88ac5b9dd19a000000001976a914331b983308b6a02b6335cffb5dacc8d4b732010f88ac00000000",
    "txid": "7a43f3b8d95c475245859753ee3bd821309a324b377d4a6e9a54f4c073c32ae1",
    "version": 1,
    "locktime": 0,
    "vin": [
      {
        "txid": "ffdb34bec789453e09fb2ec088515c723b6ca4daa514d472f814cce426953f2b",
        "vout": 0,
        "scriptSig": {
          "asm": "3045022100e4b84f3c276a12a164eb78e6e9763dd4d7e3f67509adc30dae8820760f5aa57902204c1fd8aaac2b075e3ea6745fbc7ae9244c2c25a7435e962fda0fc4e1f9490f5501 0377fd10f25e0e0f178f795931bf6cbc8fd4ff0009909ccf742c76243997ed66ae",
          "hex": "483045022100e4b84f3c276a12a164eb78e6e9763dd4d7e3f67509adc30dae8820760f5aa57902204c1fd8aaac2b075e3ea6745fbc7ae9244c2c25a7435e962fda0fc4e1f9490f5501210377fd10f25e0e0f178f795931bf6cbc8fd4ff0009909ccf742c76243997ed66ae"
        },
        "sequence": 4294967295
      },
      {
        "txid": "375b16d56763bba7ea9023f95f1b459b43318d6fd77419342db39b1668f0c6b1",
        "vout": 3,
        "scriptSig": {
          "asm": "304502210083d613c7d63b4e1c26fb895cdc68ffc34fe46211ccefd2e063df38317d56179b02202834dcbe14e6a2ea93c66a9cc7304b85fcec0f6c9de093a9f75308728dbc307601 0336dea4b1ce877a7ed78825e00c5cf6b60e945540a105600499ad8d4442ad4070",
          "hex": "48304502210083d613c7d63b4e1c26fb895cdc68ffc34fe46211ccefd2e063df38317d56179b02202834dcbe14e6a2ea93c66a9cc7304b85fcec0f6c9de093a9f75308728dbc307601210336dea4b1ce877a7ed78825e00c5cf6b60e945540a105600499ad8d4442ad4070"
        },
        "sequence": 4294967295
      }
    ],
    "vout": [
      {
        "value": 9.09100000,
        "n": 0,
        "scriptPubKey": {
          "asm": "OP_DUP OP_HASH160 748dba3debaba7ebdaad3b76133c73627d70cd18 OP_EQUALVERIFY OP_CHECKSIG",
          "hex": "76a914748dba3debaba7ebdaad3b76133c73627d70cd1888ac",
          "reqSigs": 1,
          "type": "pubkeyhash",
          "addresses": [
            "MJXSQ5jKcSwXcu66VzekNbyAYwBX944TUM"
          ]
        }
      },
      {
        "value": 64.93571428,
        "n": 1,
        "scriptPubKey": {
          "asm": "OP_DUP OP_HASH160 86f9b287a1416e098cfab36a78d2dfe874fddee6 OP_EQUALVERIFY OP_CHECKSIG",
          "hex": "76a91486f9b287a1416e098cfab36a78d2dfe874fddee688ac",
          "reqSigs": 1,
          "type": "pubkeyhash",
          "addresses": [
            "MLCquQx1q18wpk58iSESNonKpHVk2XMJeT"
          ]
        }
      },
      {
        "value": 0.01035051,
        "n": 2,
        "scriptPubKey": {
          "asm": "OP_DUP OP_HASH160 0c628e8ea55e726520ccc5079063ca7d21b6960d OP_EQUALVERIFY OP_CHECKSIG",
          "hex": "76a9140c628e8ea55e726520ccc5079063ca7d21b6960d88ac",
          "reqSigs": 1,
          "type": "pubkeyhash",
          "addresses": [
            "M92eQamskDcWDhvsv8HUHehWkVF6GLHnyH"
          ]
        }
      },
      {
        "value": 25.97428571,
        "n": 3,
        "scriptPubKey": {
          "asm": "OP_DUP OP_HASH160 331b983308b6a02b6335cffb5dacc8d4b732010f OP_EQUALVERIFY OP_CHECKSIG",
          "hex": "76a914331b983308b6a02b6335cffb5dacc8d4b732010f88ac",
          "reqSigs": 1,
          "type": "pubkeyhash",
          "addresses": [
            "MCZPkWpjkksExEmDrntzjYMwywSy74NM9y"
          ]
        }
      }
    ],
    "blockhash": "be8e7df63dc77990c21b469effc73d4a7d96a989a2eeaa26ef6f5f6ba9eab59d",
    "confirmations": 943152,
    "time": 1493164098,
    "blocktime": 1493164098
  },
  "error": null,
  "id": "curltest"
}