{
  "result": {
    "hex": "01000000010000000000000000000000000000000000000000000000000000000000000000ffffffff2003349e000442e0ff5808780000c90d0000000d2f6e6f64655374726174756d2f0000000001a06a0d54020000001976a914fb07e7085cbbf7eb85f646d4e6d76cb99c0a3d0c88ac00000000",
    "txid": "bd89db90e3c7f5e88ce956950bc05643609926cfc3dfc0b224f849ed39b3ad7b",
    "version": 1,
    "locktime": 0,
    "vin": [
      {
        "coinbase": "03349e000442e0ff5808780000c90d0000000d2f6e6f64655374726174756d2f",
        "sequence": 0
      }
    ],
    "vout": [
      {
        "value": 100.00100000,
        "n": 0,
        "scriptPubKey": {
          "asm": "OP_DUP OP_HASH160 fb07e7085cbbf7eb85f646d4e6d76cb99c0a3d0c OP_EQUALVERIFY OP_CHECKSIG",
          "hex": "76a914fb07e7085cbbf7eb85f646d4e6d76cb99c0a3d0c88ac",
          "reqSigs": 1,
          "type": "pubkeyhash",
          "addresses": [
            "MWnVJepoh9NrXLv75Aci2f1J4H8UskYENF"
          ]
        }
      }
    ],
    "blockhash": "be8e7df63dc77990c21b469effc73d4a7d96a989a2eeaa26ef6f5f6ba9eab59d",
    "confirmations": 943144,
    "time": 1493164098,
    "blocktime": 1493164098
  },
  "error": null,
  "id": "curltest"
}